{
  "address": "0x742F26F7E0AAf5467121146D9c2cC639510A239D",
  "abi": [
    {
      "inputs": [
        {
          "internalType": "address payable",
          "name": "_gelato",
          "type": "address"
        }
      ],
      "stateMutability": "nonpayable",
      "type": "constructor"
    },
    {
      "anonymous": false,
      "inputs": [
        {
          "indexed": true,
          "internalType": "address",
          "name": "owner",
          "type": "address"
        },
        {
          "indexed": true,
          "internalType": "address",
          "name": "spender",
          "type": "address"
        },
        {
          "indexed": false,
          "internalType": "uint256",
          "name": "value",
          "type": "uint256"
        }
      ],
      "name": "Approval",
      "type": "event"
    },
    {
      "anonymous": false,
      "inputs": [
        {
          "indexed": false,
          "internalType": "address",
          "name": "receiver",
          "type": "address"
        },
        {
          "indexed": false,
          "internalType": "uint256",
          "name": "burnAmount",
          "type": "uint256"
        },
        {
          "indexed": false,
          "internalType": "uint256",
          "name": "amount0Out",
          "type": "uint256"
        },
        {
          "indexed": false,
          "internalType": "uint256",
          "name": "amount1Out",
          "type": "uint256"
        },
        {
          "indexed": false,
          "internalType": "uint128",
          "name": "liquidityBurned",
          "type": "uint128"
        }
      ],
      "name": "Burned",
      "type": "event"
    },
    {
      "anonymous": false,
      "inputs": [
        {
          "indexed": false,
          "internalType": "uint256",
          "name": "feesEarned0",
          "type": "uint256"
        },
        {
          "indexed": false,
          "internalType": "uint256",
          "name": "feesEarned1",
          "type": "uint256"
        }
      ],
      "name": "FeesEarned",
      "type": "event"
    },
    {
      "anonymous": false,
      "inputs": [
        {
          "indexed": false,
          "internalType": "address",
          "name": "receiver",
          "type": "address"
        },
        {
          "indexed": false,
          "internalType": "uint256",
          "name": "mintAmount",
          "type": "uint256"
        },
        {
          "indexed": false,
          "internalType": "uint256",
          "name": "amount0In",
          "type": "uint256"
        },
        {
          "indexed": false,
          "internalType": "uint256",
          "name": "amount1In",
          "type": "uint256"
        },
        {
          "indexed": false,
          "internalType": "uint128",
          "name": "liquidityMinted",
          "type": "uint128"
        }
      ],
      "name": "Minted",
      "type": "event"
    },
    {
      "anonymous": false,
      "inputs": [
        {
          "indexed": true,
          "internalType": "address",
          "name": "previousManager",
          "type": "address"
        },
        {
          "indexed": true,
          "internalType": "address",
          "name": "newManager",
          "type": "address"
        }
      ],
      "name": "OwnershipTransferred",
      "type": "event"
    },
    {
      "anonymous": false,
      "inputs": [
        {
          "indexed": false,
          "internalType": "int24",
          "name": "lowerTick_",
          "type": "int24"
        },
        {
          "indexed": false,
          "internalType": "int24",
          "name": "upperTick_",
          "type": "int24"
        },
        {
          "indexed": false,
          "internalType": "uint128",
          "name": "liquidityBefore",
          "type": "uint128"
        },
        {
          "indexed": false,
          "internalType": "uint128",
          "name": "liquidityAfter",
          "type": "uint128"
        }
      ],
      "name": "Rebalance",
      "type": "event"
    },
    {
      "anonymous": false,
      "inputs": [
        {
          "indexed": false,
          "internalType": "uint16",
          "name": "managerFee",
          "type": "uint16"
        }
      ],
      "name": "SetManagerFee",
      "type": "event"
    },
    {
      "anonymous": false,
      "inputs": [
        {
          "indexed": true,
          "internalType": "address",
          "name": "from",
          "type": "address"
        },
        {
          "indexed": true,
          "internalType": "address",
          "name": "to",
          "type": "address"
        },
        {
          "indexed": false,
          "internalType": "uint256",
          "name": "value",
          "type": "uint256"
        }
      ],
      "name": "Transfer",
      "type": "event"
    },
    {
      "anonymous": false,
      "inputs": [
        {
          "indexed": false,
          "internalType": "address",
          "name": "oldAdminTreasury",
          "type": "address"
        },
        {
          "indexed": false,
          "internalType": "address",
          "name": "newAdminTreasury",
          "type": "address"
        }
      ],
      "name": "UpdateAdminTreasury",
      "type": "event"
    },
    {
      "anonymous": false,
      "inputs": [
        {
          "indexed": false,
          "internalType": "uint16",
          "name": "gelatoRebalanceBPS",
          "type": "uint16"
        },
        {
          "indexed": false,
          "internalType": "uint16",
          "name": "gelatoWithdrawBPS",
          "type": "uint16"
        },
        {
          "indexed": false,
          "internalType": "uint16",
          "name": "gelatoSlippageBPS",
          "type": "uint16"
        },
        {
          "indexed": false,
          "internalType": "uint32",
          "name": "gelatoSlippageInterval",
          "type": "uint32"
        }
      ],
      "name": "UpdateGelatoParams",
      "type": "event"
    },
    {
      "inputs": [],
      "name": "GELATO",
      "outputs": [
        {
          "internalType": "address payable",
          "name": "",
          "type": "address"
        }
      ],
      "stateMutability": "view",
      "type": "function"
    },
    {
      "inputs": [
        {
          "internalType": "address",
          "name": "owner",
          "type": "address"
        },
        {
          "internalType": "address",
          "name": "spender",
          "type": "address"
        }
      ],
      "name": "allowance",
      "outputs": [
        {
          "internalType": "uint256",
          "name": "",
          "type": "uint256"
        }
      ],
      "stateMutability": "view",
      "type": "function"
    },
    {
      "inputs": [
        {
          "internalType": "address",
          "name": "spender",
          "type": "address"
        },
        {
          "internalType": "uint256",
          "name": "amount",
          "type": "uint256"
        }
      ],
      "name": "approve",
      "outputs": [
        {
          "internalType": "bool",
          "name": "",
          "type": "bool"
        }
      ],
      "stateMutability": "nonpayable",
      "type": "function"
    },
    {
      "inputs": [
        {
          "internalType": "address",
          "name": "account",
          "type": "address"
        }
      ],
      "name": "balanceOf",
      "outputs": [
        {
          "internalType": "uint256",
          "name": "",
          "type": "uint256"
        }
      ],
      "stateMutability": "view",
      "type": "function"
    },
    {
      "inputs": [
        {
          "internalType": "uint256",
          "name": "burnAmount",
          "type": "uint256"
        },
        {
          "internalType": "address",
          "name": "receiver",
          "type": "address"
        }
      ],
      "name": "burn",
      "outputs": [
        {
          "internalType": "uint256",
          "name": "amount0",
          "type": "uint256"
        },
        {
          "internalType": "uint256",
          "name": "amount1",
          "type": "uint256"
        },
        {
          "internalType": "uint128",
          "name": "liquidityBurned",
          "type": "uint128"
        }
      ],
      "stateMutability": "nonpayable",
      "type": "function"
    },
    {
      "inputs": [],
      "name": "decimals",
      "outputs": [
        {
          "internalType": "uint8",
          "name": "",
          "type": "uint8"
        }
      ],
      "stateMutability": "view",
      "type": "function"
    },
    {
      "inputs": [
        {
          "internalType": "address",
          "name": "spender",
          "type": "address"
        },
        {
          "internalType": "uint256",
          "name": "subtractedValue",
          "type": "uint256"
        }
      ],
      "name": "decreaseAllowance",
      "outputs": [
        {
          "internalType": "bool",
          "name": "",
          "type": "bool"
        }
      ],
      "stateMutability": "nonpayable",
      "type": "function"
    },
    {
      "inputs": [
        {
          "internalType": "int24",
          "name": "newLowerTick",
          "type": "int24"
        },
        {
          "internalType": "int24",
          "name": "newUpperTick",
          "type": "int24"
        },
        {
          "internalType": "uint160",
          "name": "swapThresholdPrice",
          "type": "uint160"
        },
        {
          "internalType": "uint256",
          "name": "swapAmountBPS",
          "type": "uint256"
        },
        {
          "internalType": "bool",
          "name": "zeroForOne",
          "type": "bool"
        }
      ],
      "name": "executiveRebalance",
      "outputs": [],
      "stateMutability": "nonpayable",
      "type": "function"
    },
    {
      "inputs": [],
      "name": "gelatoBalance0",
      "outputs": [
        {
          "internalType": "uint256",
          "name": "",
          "type": "uint256"
        }
      ],
      "stateMutability": "view",
      "type": "function"
    },
    {
      "inputs": [],
      "name": "gelatoBalance1",
      "outputs": [
        {
          "internalType": "uint256",
          "name": "",
          "type": "uint256"
        }
      ],
      "stateMutability": "view",
      "type": "function"
    },
    {
      "inputs": [],
      "name": "gelatoFeeBPS",
      "outputs": [
        {
          "internalType": "uint16",
          "name": "",
          "type": "uint16"
        }
      ],
      "stateMutability": "view",
      "type": "function"
    },
    {
      "inputs": [],
      "name": "gelatoRebalanceBPS",
      "outputs": [
        {
          "internalType": "uint16",
          "name": "",
          "type": "uint16"
        }
      ],
      "stateMutability": "view",
      "type": "function"
    },
    {
      "inputs": [],
      "name": "gelatoSlippageBPS",
      "outputs": [
        {
          "internalType": "uint16",
          "name": "",
          "type": "uint16"
        }
      ],
      "stateMutability": "view",
      "type": "function"
    },
    {
      "inputs": [],
      "name": "gelatoSlippageInterval",
      "outputs": [
        {
          "internalType": "uint32",
          "name": "",
          "type": "uint32"
        }
      ],
      "stateMutability": "view",
      "type": "function"
    },
    {
      "inputs": [],
      "name": "gelatoWithdrawBPS",
      "outputs": [
        {
          "internalType": "uint16",
          "name": "",
          "type": "uint16"
        }
      ],
      "stateMutability": "view",
      "type": "function"
    },
    {
      "inputs": [
        {
          "internalType": "uint256",
          "name": "amount0Max",
          "type": "uint256"
        },
        {
          "internalType": "uint256",
          "name": "amount1Max",
          "type": "uint256"
        }
      ],
      "name": "getMintAmounts",
      "outputs": [
        {
          "internalType": "uint256",
          "name": "amount0",
          "type": "uint256"
        },
        {
          "internalType": "uint256",
          "name": "amount1",
          "type": "uint256"
        },
        {
          "internalType": "uint256",
          "name": "mintAmount",
          "type": "uint256"
        }
      ],
      "stateMutability": "view",
      "type": "function"
    },
    {
      "inputs": [],
      "name": "getPositionID",
      "outputs": [
        {
          "internalType": "bytes32",
          "name": "positionID",
          "type": "bytes32"
        }
      ],
      "stateMutability": "view",
      "type": "function"
    },
    {
      "inputs": [],
      "name": "getUnderlyingBalances",
      "outputs": [
        {
          "internalType": "uint256",
          "name": "amount0Current",
          "type": "uint256"
        },
        {
          "internalType": "uint256",
          "name": "amount1Current",
          "type": "uint256"
        }
      ],
      "stateMutability": "view",
      "type": "function"
    },
    {
      "inputs": [
        {
          "internalType": "uint160",
          "name": "sqrtRatioX96",
          "type": "uint160"
        }
      ],
      "name": "getUnderlyingBalancesAtPrice",
      "outputs": [
        {
          "internalType": "uint256",
          "name": "amount0Current",
          "type": "uint256"
        },
        {
          "internalType": "uint256",
          "name": "amount1Current",
          "type": "uint256"
        }
      ],
      "stateMutability": "view",
      "type": "function"
    },
    {
      "inputs": [
        {
          "internalType": "address",
          "name": "spender",
          "type": "address"
        },
        {
          "internalType": "uint256",
          "name": "addedValue",
          "type": "uint256"
        }
      ],
      "name": "increaseAllowance",
      "outputs": [
        {
          "internalType": "bool",
          "name": "",
          "type": "bool"
        }
      ],
      "stateMutability": "nonpayable",
      "type": "function"
    },
    {
      "inputs": [
        {
          "internalType": "string",
          "name": "_name",
          "type": "string"
        },
        {
          "internalType": "string",
          "name": "_symbol",
          "type": "string"
        },
        {
          "internalType": "address",
          "name": "_pool",
          "type": "address"
        },
        {
          "internalType": "uint16",
          "name": "_managerFeeBPS",
          "type": "uint16"
        },
        {
          "internalType": "int24",
          "name": "_lowerTick",
          "type": "int24"
        },
        {
          "internalType": "int24",
          "name": "_upperTick",
          "type": "int24"
        },
        {
          "internalType": "address",
          "name": "_manager_",
          "type": "address"
        }
      ],
      "name": "initialize",
      "outputs": [],
      "stateMutability": "nonpayable",
      "type": "function"
    },
    {
      "inputs": [
        {
          "internalType": "uint16",
          "name": "_managerFeeBPS",
          "type": "uint16"
        }
      ],
      "name": "initializeManagerFee",
      "outputs": [],
      "stateMutability": "nonpayable",
      "type": "function"
    },
    {
      "inputs": [],
      "name": "lowerTick",
      "outputs": [
        {
          "internalType": "int24",
          "name": "",
          "type": "int24"
        }
      ],
      "stateMutability": "view",
      "type": "function"
    },
    {
      "inputs": [],
      "name": "manager",
      "outputs": [
        {
          "internalType": "address",
          "name": "",
          "type": "address"
        }
      ],
      "stateMutability": "view",
      "type": "function"
    },
    {
      "inputs": [],
      "name": "managerBalance0",
      "outputs": [
        {
          "internalType": "uint256",
          "name": "",
          "type": "uint256"
        }
      ],
      "stateMutability": "view",
      "type": "function"
    },
    {
      "inputs": [],
      "name": "managerBalance1",
      "outputs": [
        {
          "internalType": "uint256",
          "name": "",
          "type": "uint256"
        }
      ],
      "stateMutability": "view",
      "type": "function"
    },
    {
      "inputs": [],
      "name": "managerFeeBPS",
      "outputs": [
        {
          "internalType": "uint16",
          "name": "",
          "type": "uint16"
        }
      ],
      "stateMutability": "view",
      "type": "function"
    },
    {
      "inputs": [],
      "name": "managerTreasury",
      "outputs": [
        {
          "internalType": "address",
          "name": "",
          "type": "address"
        }
      ],
      "stateMutability": "view",
      "type": "function"
    },
    {
      "inputs": [
        {
          "internalType": "uint256",
          "name": "mintAmount",
          "type": "uint256"
        },
        {
          "internalType": "address",
          "name": "receiver",
          "type": "address"
        }
      ],
      "name": "mint",
      "outputs": [
        {
          "internalType": "uint256",
          "name": "amount0",
          "type": "uint256"
        },
        {
          "internalType": "uint256",
          "name": "amount1",
          "type": "uint256"
        },
        {
          "internalType": "uint128",
          "name": "liquidityMinted",
          "type": "uint128"
        }
      ],
      "stateMutability": "nonpayable",
      "type": "function"
    },
    {
      "inputs": [],
      "name": "name",
      "outputs": [
        {
          "internalType": "string",
          "name": "",
          "type": "string"
        }
      ],
      "stateMutability": "view",
      "type": "function"
    },
    {
      "inputs": [],
      "name": "pool",
      "outputs": [
        {
          "internalType": "contract IUniswapV3Pool",
          "name": "",
          "type": "address"
        }
      ],
      "stateMutability": "view",
      "type": "function"
    },
    {
      "inputs": [
        {
          "internalType": "uint160",
          "name": "swapThresholdPrice",
          "type": "uint160"
        },
        {
          "internalType": "uint256",
          "name": "swapAmountBPS",
          "type": "uint256"
        },
        {
          "internalType": "bool",
          "name": "zeroForOne",
          "type": "bool"
        },
        {
          "internalType": "uint256",
          "name": "feeAmount",
          "type": "uint256"
        },
        {
          "internalType": "address",
          "name": "paymentToken",
          "type": "address"
        }
      ],
      "name": "rebalance",
      "outputs": [],
      "stateMutability": "nonpayable",
      "type": "function"
    },
    {
      "inputs": [],
      "name": "renounceOwnership",
      "outputs": [],
      "stateMutability": "nonpayable",
      "type": "function"
    },
    {
      "inputs": [],
      "name": "symbol",
      "outputs": [
        {
          "internalType": "string",
          "name": "",
          "type": "string"
        }
      ],
      "stateMutability": "view",
      "type": "function"
    },
    {
      "inputs": [],
      "name": "token0",
      "outputs": [
        {
          "internalType": "contract IERC20",
          "name": "",
          "type": "address"
        }
      ],
      "stateMutability": "view",
      "type": "function"
    },
    {
      "inputs": [],
      "name": "token1",
      "outputs": [
        {
          "internalType": "contract IERC20",
          "name": "",
          "type": "address"
        }
      ],
      "stateMutability": "view",
      "type": "function"
    },
    {
      "inputs": [],
      "name": "totalSupply",
      "outputs": [
        {
          "internalType": "uint256",
          "name": "",
          "type": "uint256"
        }
      ],
      "stateMutability": "view",
      "type": "function"
    },
    {
      "inputs": [
        {
          "internalType": "address",
          "name": "to",
          "type": "address"
        },
        {
          "internalType": "uint256",
          "name": "amount",
          "type": "uint256"
        }
      ],
      "name": "transfer",
      "outputs": [
        {
          "internalType": "bool",
          "name": "",
          "type": "bool"
        }
      ],
      "stateMutability": "nonpayable",
      "type": "function"
    },
    {
      "inputs": [
        {
          "internalType": "address",
          "name": "from",
          "type": "address"
        },
        {
          "internalType": "address",
          "name": "to",
          "type": "address"
        },
        {
          "internalType": "uint256",
          "name": "amount",
          "type": "uint256"
        }
      ],
      "name": "transferFrom",
      "outputs": [
        {
          "internalType": "bool",
          "name": "",
          "type": "bool"
        }
      ],
      "stateMutability": "nonpayable",
      "type": "function"
    },
    {
      "inputs": [
        {
          "internalType": "address",
          "name": "newOwner",
          "type": "address"
        }
      ],
      "name": "transferOwnership",
      "outputs": [],
      "stateMutability": "nonpayable",
      "type": "function"
    },
    {
      "inputs": [
        {
          "internalType": "uint256",
          "name": "amount0Owed",
          "type": "uint256"
        },
        {
          "internalType": "uint256",
          "name": "amount1Owed",
          "type": "uint256"
        },
        {
          "internalType": "bytes",
          "name": "",
          "type": "bytes"
        }
      ],
      "name": "uniswapV3MintCallback",
      "outputs": [],
      "stateMutability": "nonpayable",
      "type": "function"
    },
    {
      "inputs": [
        {
          "internalType": "int256",
          "name": "amount0Delta",
          "type": "int256"
        },
        {
          "internalType": "int256",
          "name": "amount1Delta",
          "type": "int256"
        },
        {
          "internalType": "bytes",
          "name": "",
          "type": "bytes"
        }
      ],
      "name": "uniswapV3SwapCallback",
      "outputs": [],
      "stateMutability": "nonpayable",
      "type": "function"
    },
    {
      "inputs": [
        {
          "internalType": "uint16",
          "name": "newRebalanceBPS",
          "type": "uint16"
        },
        {
          "internalType": "uint16",
          "name": "newWithdrawBPS",
          "type": "uint16"
        },
        {
          "internalType": "uint16",
          "name": "newSlippageBPS",
          "type": "uint16"
        },
        {
          "internalType": "uint32",
          "name": "newSlippageInterval",
          "type": "uint32"
        },
        {
          "internalType": "address",
          "name": "newTreasury",
          "type": "address"
        }
      ],
      "name": "updateGelatoParams",
      "outputs": [],
      "stateMutability": "nonpayable",
      "type": "function"
    },
    {
      "inputs": [],
      "name": "upperTick",
      "outputs": [
        {
          "internalType": "int24",
          "name": "",
          "type": "int24"
        }
      ],
      "stateMutability": "view",
      "type": "function"
    },
    {
      "inputs": [],
      "name": "version",
      "outputs": [
        {
          "internalType": "string",
          "name": "",
          "type": "string"
        }
      ],
      "stateMutability": "view",
      "type": "function"
    },
    {
      "inputs": [
        {
          "internalType": "uint256",
          "name": "feeAmount",
          "type": "uint256"
        },
        {
          "internalType": "address",
          "name": "feeToken",
          "type": "address"
        }
      ],
      "name": "withdrawGelatoBalance",
      "outputs": [],
      "stateMutability": "nonpayable",
      "type": "function"
    },
    {
      "inputs": [
        {
          "internalType": "uint256",
          "name": "feeAmount",
          "type": "uint256"
        },
        {
          "internalType": "address",
          "name": "feeToken",
          "type": "address"
        }
      ],
      "name": "withdrawManagerBalance",
      "outputs": [],
      "stateMutability": "nonpayable",
      "type": "function"
    }
  ],
  "transactionHash": "0xbcdbc6e81456aadfbca5ce925599e89a470846aff8f09201075b2add965d2d0d",
  "args": [
    "0x535CDe0F8339CD4b5bb5804f1DcaAE239920bB7D"
  ],
  "solcInputHash": "f202541446ad54361c0e6f64ff8746d8",
  "bytecode": "0x60a06040523480156200001157600080fd5b5060405162005f8a38038062005f8a83398101604081905262000034916200004a565b60601b6001600160601b0319166080526200007a565b6000602082840312156200005c578081fd5b81516001600160a01b038116811462000073578182fd5b9392505050565b60805160601c615eb2620000d8600039600081816105d201528181610c9a01528181610d8301528181610dbd015281816114a7015281816116f30152818161172d0152818161180f0152818161188601526118c30152615eb26000f3fe608060405234801561001057600080fd5b50600436106102255760003560e01c8063065756db1461022a57806306fdde0314610246578063095ea7b31461025b5780630dfe16811461027e5780631322d9541461029e57806316f0115b146102b457806318160ddd146102c757806323b872dd146102cf57806324b8fd1b146102e257806331366be4146102f7578063313ce5671461031257806339509351146103215780633d8b30e11461033457806342fb9d4414610349578063481c6a751461035257806354fd4d501461035a578063672152bd1461037e57806370a08231146103a3578063715018a6146103cc578063727dd228146103d457806378ac6357146103f557806394bf804d1461040857806395d89b411461043f5780639894f21a1461044757806399fd808c146104755780639b1344ac14610488578063a457c2d71461049c578063a50b1fe7146104af578063a9059cbb146104c4578063b135c99f146104d7578063b536bd12146104ea578063b670ed7d146104f3578063be93dd5f14610506578063c345445914610519578063cc95353e14610522578063ccdf7a021461053c578063d21220a714610551578063d348799714610564578063d6e7ff3914610577578063dd62ed3e1461058c578063df28408a1461059f578063e25e15e3146105a7578063e4077894146105ba578063eff557a7146105cd578063f2fde38b146105f4578063fa461e3314610607578063fcd3533c1461061a575b600080fd5b61023360995481565b6040519081526020015b60405180910390f35b61024e61062d565b60405161023d91906158bb565b61026e61026936600461520c565b6106bf565b604051901515815260200161023d565b609e54610291906001600160a01b031681565b60405161023d91906157a8565b6102a66106d7565b60405161023d929190615ab0565b609d54610291906001600160a01b031681565b603554610233565b61026e6102dd3660046151cc565b610780565b6102f56102f0366004615316565b6107a6565b005b6102ff60fa81565b60405161ffff909116815260200161023d565b6040516012815260200161023d565b61026e61032f36600461520c565b610be9565b6097546102ff90600160e01b900461ffff1681565b610233609a5481565b610291610c28565b61024e604051806040016040528060058152602001640312e302e360dc1b81525081565b60985461038e9063ffffffff1681565b60405163ffffffff909116815260200161023d565b6102336103b136600461515c565b6001600160a01b031660009081526033602052604090205490565b6102f5610c37565b6097546103e890600160b81b900460020b81565b60405161023d919061587f565b6102f5610403366004615747565b610c8d565b61041b610416366004615747565b610de8565b6040805193845260208401929092526001600160801b03169082015260600161023d565b61024e6110ce565b61045a61045536600461576b565b6110dd565b6040805193845260208401929092529082015260600161023d565b6102f56104833660046156cd565b61122f565b6097546103e890600160a01b900460020b81565b61026e6104aa36600461520c565b6113ef565b6097546102ff90600160d01b900461ffff1681565b61026e6104d236600461520c565b61148c565b6102f56104e536600461567d565b61149a565b610233609b5481565b6102a661050136600461515c565b61175b565b6102f5610514366004615747565b611802565b610233609c5481565b60985461029190600160301b90046001600160a01b031681565b6098546102ff90600160201b900461ffff1681565b609f54610291906001600160a01b031681565b6102f56105723660046153a0565b6118e8565b6097546102ff90600160f01b900461ffff1681565b61023361059a366004615194565b61194c565b610233611977565b6102f56105b53660046153f0565b611986565b6102f56105c83660046155d1565b611c70565b6102917f000000000000000000000000000000000000000000000000000000000000000081565b6102f561060236600461515c565b611d7d565b6102f56106153660046153a0565b611e5d565b61041b610628366004615747565b611ec7565b60606036805461063c90615cbe565b80601f016020809104026020016040519081016040528092919081815260200182805461066890615cbe565b80156106b55780601f1061068a576101008083540402835291602001916106b5565b820191906000526020600020905b81548152906001019060200180831161069857829003601f168201915b5050505050905090565b6000336106cd818585612200565b5060019392505050565b600080600080609d60009054906101000a90046001600160a01b03166001600160a01b0316633850c7bd6040518163ffffffff1660e01b815260040160e06040518083038186803b15801561072b57600080fd5b505afa15801561073f573d6000803e3d6000fd5b505050506040513d601f19601f8201168201806040525081019061076391906155ed565b5050505050915091506107768282612324565b9350935050509091565b60003361078e8582856125d5565b610799858585612649565b60019150505b9392505050565b336107af610c28565b6001600160a01b0316146107de5760405162461bcd60e51b81526004016107d5906159cc565b60405180910390fd5b60008060006107ec60355490565b1115610b7057609d546001600160a01b031663514ea4bf61080b612805565b6040518263ffffffff1660e01b815260040161082991815260200190565b60a06040518083038186803b15801561084157600080fd5b505afa158015610855573d6000803e3d6000fd5b505050506040513d601f19601f82011682018060405250810190610879919061557b565b5092945050506001600160801b0383161590506109025760975460009081906108b890600160a01b8104600290810b91600160b81b9004900b8661286b565b9350935050506108c88282612bf8565b6108d28282612cd1565b6040519193509150600080516020615e5d833981519152906108f79084908490615ab0565b60405180910390a150505b60978054600288810b62ffffff908116600160b81b0262ffffff60b81b19928c900b909116600160a01b029190911665ffffffffffff60a01b1990921691909117179055609b54609954609e546040516370a0823160e01b815260009392916001600160a01b0316906370a082319061097f9030906004016157a8565b60206040518083038186803b15801561099757600080fd5b505afa1580156109ab573d6000803e3d6000fd5b505050506040513d601f19601f820116820180604052508101906109cf919061572f565b6109d99190615c7b565b6109e39190615c7b565b609c54609a54609f546040516370a0823160e01b81529394506000936001600160a01b03909116906370a0823190610a1f9030906004016157a8565b60206040518083038186803b158015610a3757600080fd5b505afa158015610a4b573d6000803e3d6000fd5b505050506040513d601f19601f82011682018060405250810190610a6f919061572f565b610a799190615c7b565b610a839190615c7b565b9050610a94898984848b8b8b612d6c565b609d546001600160a01b031663514ea4bf610aad612805565b6040518263ffffffff1660e01b8152600401610acb91815260200190565b60a06040518083038186803b158015610ae357600080fd5b505afa158015610af7573d6000803e3d6000fd5b505050506040513d601f19601f82011682018060405250810190610b1b919061557b565b509295505050506001600160801b038316610b695760405162461bcd60e51b815260206004820152600e60248201526d06e657720706f736974696f6e20360941b60448201526064016107d5565b5050610bb5565b60978054600288810b62ffffff908116600160b81b0262ffffff60b81b19928c900b909116600160a01b029190911665ffffffffffff60a01b19909216919091171790555b600080516020615dfd83398151915287878484604051610bd8949392919061588d565b60405180910390a150505050505050565b3360008181526034602090815260408083206001600160a01b03871684529091528120549091906106cd9082908690610c23908790615b59565b612200565b6097546001600160a01b031690565b33610c40610c28565b6001600160a01b031614610c665760405162461bcd60e51b81526004016107d5906159cc565b60988054600160201b600160d01b031916905560006099819055609a55610c8b612f2b565b565b8181336001600160a01b037f00000000000000000000000000000000000000000000000000000000000000001614610cd75760405162461bcd60e51b81526004016107d5906158ee565b600080610cea609954609a548888612f92565b60006099819055609a5590925090508115610d2457609854609e54610d24916001600160a01b0391821691600160301b90910416846130b6565b8015610d4f57609854609f54610d4f916001600160a01b0391821691600160301b90910416836130b6565b50506001600160a01b03811673eeeeeeeeeeeeeeeeeeeeeeeeeeeeeeeeeeeeeeee1415610dae57610da96001600160a01b037f0000000000000000000000000000000000000000000000000000000000000000168361311e565b610de2565b610de26001600160a01b0382167f0000000000000000000000000000000000000000000000000000000000000000846130b6565b50505050565b600080600060026065541415610e105760405162461bcd60e51b81526004016107d590615a79565b600260655584610e325760405162461bcd60e51b81526004016107d590615a59565b6000610e3d60355490565b90506000609d60009054906101000a90046001600160a01b03166001600160a01b0316633850c7bd6040518163ffffffff1660e01b815260040160e06040518083038186803b158015610e8f57600080fd5b505afa158015610ea3573d6000803e3d6000fd5b505050506040513d601f19601f82011682018060405250810190610ec791906155ed565b50505050505090506000821115610f0857600080610ee36106d7565b91509150610ef2828a86613234565b9650610eff818a86613234565b95505050610f55565b610f4f81610f27609760149054906101000a900460020b60020b61328b565b609754610f4190600160b81b9004600290810b900b61328b565b610f4a8b61369d565b613706565b90955093505b8415610f7357609e54610f73906001600160a01b03163330886137a1565b8315610f9157609f54610f91906001600160a01b03163330876137a1565b610fd181610fb0609760149054906101000a900460020b60020b61328b565b609754610fca90600160b81b9004600290810b900b61328b565b88886137d9565b609d54609754604051633c8a7d8d60e01b81529295506001600160a01b0390911691633c8a7d8d91611021913091600160a01b8104600290810b92600160b81b909204900b9089906004016157bc565b6040805180830381600087803b15801561103a57600080fd5b505af115801561104e573d6000803e3d6000fd5b505050506040513d601f19601f82011682018060405250810190611072919061537d565b505061107e868861389b565b7f55801cfe493000b734571da1694b21e7f66b11e8ce9fdaa0524ecb59105e73e786888787876040516110b59594939291906157fe565b60405180910390a1505060016065819055509250925092565b60606037805461063c90615cbe565b6000806000806110ec60355490565b9050801561110b576110ff818787613969565b91955093509150611227565b609d5460408051633850c7bd60e01b815290516000926001600160a01b031691633850c7bd9160048083019260e0929190829003018186803b15801561115057600080fd5b505afa158015611164573d6000803e3d6000fd5b505050506040513d601f19601f8201168201806040525081019061118891906155ed565b505050505050905060006111d2826111b1609760149054906101000a900460020b60020b61328b565b6097546111cb90600160b81b9004600290810b900b61328b565b8b8b6137d9565b9050806001600160801b0316935061121f826111ff609760149054906101000a900460020b60020b61328b565b60975461121990600160b81b9004600290810b900b61328b565b84613706565b909650945050505b509250925092565b33611238610c28565b6001600160a01b03161461125e5760405162461bcd60e51b81526004016107d5906159cc565b6127108461ffff1611156112845760405162461bcd60e51b81526004016107d5906159af565b6127108561ffff1611156112aa5760405162461bcd60e51b81526004016107d5906159af565b6127108361ffff1611156112d05760405162461bcd60e51b81526004016107d5906159af565b6040805161ffff8781168252868116602083015285168183015263ffffffff8416606082015290517f0b7615006627cf7664941bc288d4641731f895e102f95cb8690583ad7508faa89181900360800190a161ffff851615611347576097805461ffff60d01b1916600160d01b61ffff8816021790555b61ffff84161561136c576097805461ffff60e01b1916600160e01b61ffff8716021790555b61ffff83161561139257609780546001600160f01b0316600160f01b61ffff8616021790555b63ffffffff8216156113b4576098805463ffffffff191663ffffffff84161790555b6001600160a01b038116156113e85760988054600160301b600160d01b031916600160301b6001600160a01b038416021790555b5050505050565b3360008181526034602090815260408083206001600160a01b0387168452909152812054909190838110156114745760405162461bcd60e51b815260206004820152602560248201527f45524332303a2064656372656173656420616c6c6f77616e63652062656c6f77604482015264207a65726f60d81b60648201526084016107d5565b6114818286868403612200565b506001949350505050565b6000336106cd818585612649565b8181336001600160a01b037f000000000000000000000000000000000000000000000000000000000000000016146114e45760405162461bcd60e51b81526004016107d5906158ee565b85156114f4576114f48786613a78565b609d546000906001600160a01b031663514ea4bf611510612805565b6040518263ffffffff1660e01b815260040161152e91815260200190565b60a06040518083038186803b15801561154657600080fd5b505afa15801561155a573d6000803e3d6000fd5b505050506040513d601f19601f8201168201806040525081019061157e919061557b565b505050509050611592818989898989613d26565b609d546000906001600160a01b031663514ea4bf6115ae612805565b6040518263ffffffff1660e01b81526004016115cc91815260200190565b60a06040518083038186803b1580156115e457600080fd5b505afa1580156115f8573d6000803e3d6000fd5b505050506040513d601f19601f8201168201806040525081019061161c919061557b565b505050509050816001600160801b0316816001600160801b03161161167d5760405162461bcd60e51b81526020600482015260176024820152766c6971756964697479206d75737420696e63726561736560481b60448201526064016107d5565b609754604051600080516020615dfd833981519152916116b791600160a01b8204600290810b92600160b81b9004900b908690869061588d565b60405180910390a150506001600160a01b03811673eeeeeeeeeeeeeeeeeeeeeeeeeeeeeeeeeeeeeeee141561171e576117196001600160a01b037f0000000000000000000000000000000000000000000000000000000000000000168361311e565b611752565b6117526001600160a01b0382167f0000000000000000000000000000000000000000000000000000000000000000846130b6565b50505050505050565b6000806000609d60009054906101000a90046001600160a01b03166001600160a01b0316633850c7bd6040518163ffffffff1660e01b815260040160e06040518083038186803b1580156117ae57600080fd5b505afa1580156117c2573d6000803e3d6000fd5b505050506040513d601f19601f820116820180604052508101906117e691906155ed565b50505050509150506117f88482612324565b9250925050915091565b8181336001600160a01b037f0000000000000000000000000000000000000000000000000000000000000000161461184c5760405162461bcd60e51b81526004016107d5906158ee565b60008061185f609b54609c548888612f92565b6000609b819055609c55909250905081156118ab57609e546118ab906001600160a01b03167f0000000000000000000000000000000000000000000000000000000000000000846130b6565b8015610d4f57609f54610d4f906001600160a01b03167f0000000000000000000000000000000000000000000000000000000000000000836130b6565b609d546001600160a01b031633146119125760405162461bcd60e51b81526004016107d59061593d565b831561192f57609e5461192f906001600160a01b031633866130b6565b8215610de257609f54610de2906001600160a01b031633856130b6565b6001600160a01b03918216600090815260346020908152604080832093909416825291909152205490565b6000611981612805565b905090565b600054610100900460ff166119a15760005460ff16156119a5565b303b155b611a085760405162461bcd60e51b815260206004820152602e60248201527f496e697469616c697a61626c653a20636f6e747261637420697320616c72656160448201526d191e481a5b9a5d1a585b1a5e995960921b60648201526084016107d5565b600054610100900460ff16158015611a2a576000805461ffff19166101011790555b611a3760fa612710615c38565b61ffff168561ffff161115611a5e5760405162461bcd60e51b81526004016107d59061591f565b609d80546001600160a01b0319166001600160a01b03881690811790915560408051630dfe168160e01b81529051630dfe168191600480820192602092909190829003018186803b158015611ab257600080fd5b505afa158015611ac6573d6000803e3d6000fd5b505050506040513d601f19601f82011682018060405250810190611aea9190615178565b609e80546001600160a01b0319166001600160a01b03928316179055609d546040805163d21220a760e01b81529051919092169163d21220a7916004808301926020929190829003018186803b158015611b4357600080fd5b505afa158015611b57573d6000803e3d6000fd5b505050506040513d601f19601f82011682018060405250810190611b7b9190615178565b609f80546001600160a01b03199081166001600160a01b0393841617909155609880546097805461012c65ffffffffffff19909316600160201b61ffff8d160263ffffffff19161792909217600160301b600160d01b031916600160301b95881695860217909255643e800c801960d31b600165ffffff00000160a01b03909116600160a01b60028a810b62ffffff908116929092029290921792909217600165ffffff00000160a01b031916600160b81b9189900b9290921602909216919091179091179055611c4c8888614248565b611c54614279565b8015611c66576000805461ff00191690555b5050505050505050565b33611c79610c28565b6001600160a01b031614611c9f5760405162461bcd60e51b81526004016107d5906159cc565b609854600160201b900461ffff1615611ce05760405162461bcd60e51b815260206004820152600360248201526266656560e81b60448201526064016107d5565b60008161ffff16118015611d085750611cfc60fa612710615c38565b61ffff168161ffff1611155b611d245760405162461bcd60e51b81526004016107d59061591f565b60405161ffff821681527f8a1ffb520c943072e654fc414750dbefad5b6d6311339d041901c4752782fad39060200160405180910390a16098805461ffff909216600160201b0261ffff60201b19909216919091179055565b33611d86610c28565b6001600160a01b031614611dac5760405162461bcd60e51b81526004016107d5906159cc565b6001600160a01b038116611e135760405162461bcd60e51b815260206004820152602860248201527f4f776e61626c653a206e6577206d616e6167657220697320746865207a65726f604482015267206164647265737360c01b60648201526084016107d5565b6097546040516001600160a01b03808416921690600080516020615e1d83398151915290600090a3609780546001600160a01b0319166001600160a01b0392909216919091179055565b609d546001600160a01b03163314611e875760405162461bcd60e51b81526004016107d59061593d565b6000841315611ea757609e54610da9906001600160a01b031633866130b6565b6000831315610de257609f54610de2906001600160a01b031633856130b6565b600080600060026065541415611eef5760405162461bcd60e51b81526004016107d590615a79565b600260655584611f2a5760405162461bcd60e51b815260206004820152600660248201526506275726e20360d41b60448201526064016107d5565b6000611f3560355490565b609d549091506000906001600160a01b031663514ea4bf611f54612805565b6040518263ffffffff1660e01b8152600401611f7291815260200190565b60a06040518083038186803b158015611f8a57600080fd5b505afa158015611f9e573d6000803e3d6000fd5b505050506040513d601f19601f82011682018060405250810190611fc2919061557b565b505050509050611fd233886142a8565b6000611fe888836001600160801b0316856143e4565b9050611ff38161369d565b60975490945060009081908190819061202290600160a01b8104600290810b91600160b81b9004900b8a61286b565b93509350935093506120348282612bf8565b61203e8282612cd1565b6040519193509150600080516020615e5d833981519152906120639084908490615ab0565b60405180910390a1609b54609954609e546040516370a0823160e01b815261211e93929188916001600160a01b03909116906370a08231906120a99030906004016157a8565b60206040518083038186803b1580156120c157600080fd5b505afa1580156120d5573d6000803e3d6000fd5b505050506040513d601f19601f820116820180604052508101906120f9919061572f565b6121039190615c7b565b61210d9190615c7b565b6121179190615c7b565b8d896143e4565b6121289085615b59565b609c54609a54609f546040516370a0823160e01b8152939d506121659387916001600160a01b0316906370a08231906120a99030906004016157a8565b61216f9084615b59565b9850891561218e57609e5461218e906001600160a01b03168c8c6130b6565b88156121ab57609f546121ab906001600160a01b03168c8b6130b6565b7f7239dff1718b550db7f36cbf69c665cfeb56d0e96b4fb76a5cba712961b655098b8d8c8c8c6040516121e29594939291906157fe565b60405180910390a15050505050505060016065819055509250925092565b6001600160a01b0383166122625760405162461bcd60e51b8152602060048201526024808201527f45524332303a20617070726f76652066726f6d20746865207a65726f206164646044820152637265737360e01b60648201526084016107d5565b6001600160a01b0382166122c35760405162461bcd60e51b815260206004820152602260248201527f45524332303a20617070726f766520746f20746865207a65726f206164647265604482015261737360f01b60648201526084016107d5565b6001600160a01b0383811660008181526034602090815260408083209487168084529482529182902085905590518481527f8c5be1e5ebec7d5bd14f71427d1e84f3dd0314c0f7b2291e5b200ac8c7c3b925910160405180910390a3505050565b609d546000908190819081908190819081906001600160a01b031663514ea4bf61234c612805565b6040518263ffffffff1660e01b815260040161236a91815260200190565b60a06040518083038186803b15801561238257600080fd5b505afa158015612396573d6000803e3d6000fd5b505050506040513d601f19601f820116820180604052508101906123ba919061557b565b94509450945094509450612403896123e3609760149054906101000a900460020b60020b61328b565b6097546123fd90600160b81b9004600290810b900b61328b565b88613706565b909750955060006001600160801b0383166124216001878c8a614493565b61242b9190615b59565b90506000826001600160801b03166124466000878d8b614493565b6124509190615b59565b905061245c8282612cd1565b609b54609954609e546040516370a0823160e01b8152949650929450909290916001600160a01b0316906370a082319061249a9030906004016157a8565b60206040518083038186803b1580156124b257600080fd5b505afa1580156124c6573d6000803e3d6000fd5b505050506040513d601f19601f820116820180604052508101906124ea919061572f565b6124f49085615b59565b6124fe9190615c7b565b6125089190615c7b565b612512908a615b59565b609c54609a54609f546040516370a0823160e01b8152939c50919290916001600160a01b0316906370a082319061254d9030906004016157a8565b60206040518083038186803b15801561256557600080fd5b505afa158015612579573d6000803e3d6000fd5b505050506040513d601f19601f8201168201806040525081019061259d919061572f565b6125a79084615b59565b6125b19190615c7b565b6125bb9190615c7b565b6125c59089615b59565b9750505050505050509250929050565b60006125e1848461194c565b90506000198114610de2578181101561263c5760405162461bcd60e51b815260206004820152601d60248201527f45524332303a20696e73756666696369656e7420616c6c6f77616e636500000060448201526064016107d5565b610de28484848403612200565b6001600160a01b0383166126ad5760405162461bcd60e51b815260206004820152602560248201527f45524332303a207472616e736665722066726f6d20746865207a65726f206164604482015264647265737360d81b60648201526084016107d5565b6001600160a01b03821661270f5760405162461bcd60e51b815260206004820152602360248201527f45524332303a207472616e7366657220746f20746865207a65726f206164647260448201526265737360e81b60648201526084016107d5565b6001600160a01b038316600090815260336020526040902054818110156127875760405162461bcd60e51b815260206004820152602660248201527f45524332303a207472616e7366657220616d6f756e7420657863656564732062604482015265616c616e636560d01b60648201526084016107d5565b6001600160a01b038085166000908152603360205260408082208585039055918516815290812080548492906127be908490615b59565b92505081905550826001600160a01b0316846001600160a01b0316600080516020615e3d833981519152846040516127f891815260200190565b60405180910390a3610de2565b6097546040516001600160601b03193060601b166020820152600160a01b8204600290810b810b60e890811b6034840152600160b81b909304810b900b90911b6037820152600090603a0160405160208183030381529060405280519060200120905090565b609e546040516370a0823160e01b815260009182918291829182916001600160a01b0316906370a08231906128a49030906004016157a8565b60206040518083038186803b1580156128bc57600080fd5b505afa1580156128d0573d6000803e3d6000fd5b505050506040513d601f19601f820116820180604052508101906128f4919061572f565b609f546040516370a0823160e01b81529192506000916001600160a01b03909116906370a082319061292a9030906004016157a8565b60206040518083038186803b15801561294257600080fd5b505afa158015612956573d6000803e3d6000fd5b505050506040513d601f19601f8201168201806040525081019061297a919061572f565b609d5460405163a34123a760e01b815260028c810b60048301528b900b60248201526001600160801b038a1660448201529192506001600160a01b03169063a34123a7906064016040805180830381600087803b1580156129da57600080fd5b505af11580156129ee573d6000803e3d6000fd5b505050506040513d601f19601f82011682018060405250810190612a12919061537d565b609d546040516309e3d67b60e31b815230600482015260028d810b60248301528c900b60448201526001600160801b036064820181905260848201529298509096506001600160a01b031690634f1eb3d89060a4016040805180830381600087803b158015612a8057600080fd5b505af1158015612a94573d6000803e3d6000fd5b505050506040513d601f19601f82011682018060405250810190612ab89190615549565b5050609e546040516370a0823160e01b8152879184916001600160a01b03909116906370a0823190612aee9030906004016157a8565b60206040518083038186803b158015612b0657600080fd5b505afa158015612b1a573d6000803e3d6000fd5b505050506040513d601f19601f82011682018060405250810190612b3e919061572f565b612b489190615c7b565b612b529190615c7b565b609f546040516370a0823160e01b8152919550869183916001600160a01b0316906370a0823190612b879030906004016157a8565b60206040518083038186803b158015612b9f57600080fd5b505afa158015612bb3573d6000803e3d6000fd5b505050506040513d601f19601f82011682018060405250810190612bd7919061572f565b612be19190615c7b565b612beb9190615c7b565b9250505093509350935093565b612710612c0660fa84615bda565b612c109190615b97565b609b6000828254612c219190615b59565b909155506127109050612c3560fa83615bda565b612c3f9190615b97565b609c6000828254612c509190615b59565b909155505060985461271090612c7190600160201b900461ffff1684615bda565b612c7b9190615b97565b60996000828254612c8c9190615b59565b909155505060985461271090612cad90600160201b900461ffff1683615bda565b612cb79190615b97565b609a6000828254612cc89190615b59565b90915550505050565b6000806000612710609860049054906101000a900461ffff1660fa612cf69190615b11565b612d049061ffff1687615bda565b612d0e9190615b97565b60985490915060009061271090612d3190600160201b900461ffff1660fa615b11565b612d3f9061ffff1687615bda565b612d499190615b97565b9050612d558287615c7b565b9350612d618186615c7b565b925050509250929050565b609d5460408051633850c7bd60e01b815290516000926001600160a01b031691633850c7bd9160048083019260e0929190829003018186803b158015612db157600080fd5b505afa158015612dc5573d6000803e3d6000fd5b505050506040513d601f19601f82011682018060405250810190612de991906155ed565b50505050505090506000612e1682612e038b60020b61328b565b612e0f8b60020b61328b565b8a8a6137d9565b90506001600160801b03811615612ed357609d54604051633c8a7d8d60e01b815260009182916001600160a01b0390911690633c8a7d8d90612e629030908f908f9089906004016157bc565b6040805180830381600087803b158015612e7b57600080fd5b505af1158015612e8f573d6000803e3d6000fd5b505050506040513d601f19601f82011682018060405250810190612eb3919061537d565b9092509050612ec2828a615c7b565b9850612ece8189615c7b565b975050505b6000612f026127108686612ee75789612ee9565b8a5b612ef39190615bda565b612efd9190615b97565b61489f565b90506000811315612f1f57612f1c8a8a8a8a858b8a614905565b50505b50505050505050505050565b33612f34610c28565b6001600160a01b031614612f5a5760405162461bcd60e51b81526004016107d5906159cc565b6097546040516000916001600160a01b031690600080516020615e1d833981519152908390a3609780546001600160a01b0319169055565b609e5460009081906001600160a01b038481169116141561300757609754849061271090612fcb90600160e01b900461ffff1689615bda565b612fd59190615b97565b1015612ff35760405162461bcd60e51b81526004016107d590615966565b612ffd8487615c7b565b91508490506130ad565b609f546001600160a01b03848116911614156130775760975484906127109061303b90600160e01b900461ffff1688615bda565b6130459190615b97565b10156130635760405162461bcd60e51b81526004016107d590615966565b61306d8486615c7b565b90508591506130ad565b60405162461bcd60e51b815260206004820152600b60248201526a3bb937b733903a37b5b2b760a91b60448201526064016107d5565b94509492505050565b6040516001600160a01b03831660248201526044810182905261311990849063a9059cbb60e01b906064015b60408051601f198184030181529190526020810180516001600160e01b03166001600160e01b031990931692909217909152614b4e565b505050565b8047101561316e5760405162461bcd60e51b815260206004820152601d60248201527f416464726573733a20696e73756666696369656e742062616c616e636500000060448201526064016107d5565b6000826001600160a01b03168260405160006040518083038185875af1925050503d80600081146131bb576040519150601f19603f3d011682016040523d82523d6000602084013e6131c0565b606091505b50509050806131195760405162461bcd60e51b815260206004820152603a60248201527f416464726573733a20756e61626c6520746f2073656e642076616c75652c20726044820152791958da5c1a595b9d081b585e481a185d99481c995d995c9d195960321b60648201526084016107d5565b60006132418484846143e4565b90506000828061326157634e487b7160e01b600052601260045260246000fd5b848609111561079f57600019811061327857600080fd5b8061328281615cf9565b95945050505050565b60008060008360020b126132a2578260020b6132af565b8260020b6132af90615d49565b90506132be620d89e719615d28565b60020b8111156132f45760405162461bcd60e51b81526020600482015260016024820152601560fa1b60448201526064016107d5565b60006001821661330857600160801b61331a565b6ffffcb933bd6fad37aa2d162d1a5940015b6001600160881b03169050600282161561334f57608061334a826ffff97272373d413259a46990580e213a615bda565b901c90505b6004821615613379576080613374826ffff2e50f5f656932ef12357cf3c7fdcc615bda565b901c90505b60088216156133a357608061339e826fffe5caca7e10e4e61c3624eaa0941cd0615bda565b901c90505b60108216156133cd5760806133c8826fffcb9843d60f6159c9db58835c926644615bda565b901c90505b60208216156133f75760806133f2826fff973b41fa98c081472e6896dfb254c0615bda565b901c90505b604082161561342157608061341c826fff2ea16466c96a3843ec78b326b52861615bda565b901c90505b608082161561344b576080613446826ffe5dee046a99a2a811c461f1969c3053615bda565b901c90505b610100821615613476576080613471826ffcbe86c7900a88aedcffc83b479aa3a4615bda565b901c90505b6102008216156134a157608061349c826ff987a7253ac413176f2b074cf7815e54615bda565b901c90505b6104008216156134cc5760806134c7826ff3392b0822b70005940c7a398e4b70f3615bda565b901c90505b6108008216156134f75760806134f2826fe7159475a2c29b7443b29c7fa6e889d9615bda565b901c90505b61100082161561352257608061351d826fd097f3bdfd2022b8845ad8f792aa5825615bda565b901c90505b61200082161561354d576080613548826fa9f746462d870fdf8a65dc1f90e061e5615bda565b901c90505b614000821615613578576080613573826f70d869a156d2a1b890bb3df62baf32f7615bda565b901c90505b6180008216156135a357608061359e826f31be135f97d08fd981231505542fcfa6615bda565b901c90505b620100008216156135cf5760806135ca826f09aa508b5b7a84e1c677de54f3e99bc9615bda565b901c90505b620200008216156135fa5760806135f5826e5d6af8dedb81196699c329225ee604615bda565b901c90505b6204000082161561362457608061361f826d2216e584f5fa1ea926041bedfe98615bda565b901c90505b6208000082161561364c576080613647826b048a170391f7dc42444e8fa2615bda565b901c90505b60008460020b13156136675761366481600019615b97565b90505b613675600160201b82615d14565b15613681576001613684565b60005b6136959060ff16602083901c615b59565b949350505050565b6000600160801b82106137025760405162461bcd60e51b815260206004820152602760248201527f53616665436173743a2076616c756520646f65736e27742066697420696e20316044820152663238206269747360c81b60648201526084016107d5565b5090565b600080836001600160a01b0316856001600160a01b03161115613727579293925b846001600160a01b0316866001600160a01b0316116137525761374b858585614c20565b91506130ad565b836001600160a01b0316866001600160a01b0316101561378b57613777868585614c20565b9150613784858785614c8a565b90506130ad565b613796858585614c8a565b905094509492505050565b6040516001600160a01b0380851660248301528316604482015260648101829052610de29085906323b872dd60e01b906084016130e2565b6000836001600160a01b0316856001600160a01b031611156137f9579293925b846001600160a01b0316866001600160a01b0316116138245761381d858585614cd4565b9050613282565b836001600160a01b0316866001600160a01b0316101561388657600061384b878686614cd4565b9050600061385a878986614d3e565b9050806001600160801b0316826001600160801b03161061387b578061387d565b815b92505050613282565b613891858584614d3e565b9695505050505050565b6001600160a01b0382166138f15760405162461bcd60e51b815260206004820152601f60248201527f45524332303a206d696e7420746f20746865207a65726f20616464726573730060448201526064016107d5565b80603560008282546139039190615b59565b90915550506001600160a01b03821660009081526033602052604081208054839290613930908490615b59565b90915550506040518181526001600160a01b03831690600090600080516020615e3d8339815191529060200160405180910390a35b5050565b60008060008060006139796106d7565b9150915081600014801561398d5750600081115b156139a45761399d8689836143e4565b9250613a53565b801580156139b25750600082115b156139c25761399d8789846143e4565b811580156139ce575080155b156139f55760405162461bcd60e51b815260206004820152600060248201526044016107d5565b6000613a02888a856143e4565b90506000613a11888b856143e4565b9050600082118015613a235750600081115b613a3f5760405162461bcd60e51b81526004016107d590615a59565b808210613a4c5780613a4e565b815b945050505b613a5e83838a613234565b9450613a6b83828a613234565b9350505093509350939050565b6040805160028082526060820183526000926020830190803683375050609854825192935063ffffffff1691839150600090613ac457634e487b7160e01b600052603260045260246000fd5b602002602001019063ffffffff16908163ffffffff1681525050600081600181518110613b0157634e487b7160e01b600052603260045260246000fd5b63ffffffff90921660209283029190910190910152609d5460405163883bdbfd60e01b81526000916001600160a01b03169063883bdbfd90613b47908590600401615835565b60006040518083038186803b158015613b5f57600080fd5b505afa158015613b73573d6000803e3d6000fd5b505050506040513d6000823e601f3d908101601f19168201604052613b9b9190810190615237565b5090508051600214613bdb5760405162461bcd60e51b815260206004820152600960248201526830b93930bc903632b760b91b60448201526064016107d5565b6098548151600091829163ffffffff90911660060b9084908390613c0f57634e487b7160e01b600052603260045260246000fd5b602002602001015184600181518110613c3857634e487b7160e01b600052603260045260246000fd5b60200260200101510360060b81613c5f57634e487b7160e01b600052601260045260246000fd5b059050613c6e8160020b61328b565b6097549092506000915061271090613c9190600160f01b900461ffff1684615bab565b613c9b9190615b71565b90508415613ce357613cad8183615c5b565b6001600160a01b0316866001600160a01b03161015613cde5760405162461bcd60e51b81526004016107d590615988565b613d1e565b613ced8183615b37565b6001600160a01b0316866001600160a01b03161115613d1e5760405162461bcd60e51b81526004016107d590615988565b505050505050565b609b54609954609e546040516370a0823160e01b815260009392916001600160a01b0316906370a0823190613d5f9030906004016157a8565b60206040518083038186803b158015613d7757600080fd5b505afa158015613d8b573d6000803e3d6000fd5b505050506040513d601f19601f82011682018060405250810190613daf919061572f565b613db99190615c7b565b613dc39190615c7b565b609c54609a54609f546040516370a0823160e01b81529394506000936001600160a01b03909116906370a0823190613dff9030906004016157a8565b60206040518083038186803b158015613e1757600080fd5b505afa158015613e2b573d6000803e3d6000fd5b505050506040513d601f19601f82011682018060405250810190613e4f919061572f565b613e599190615c7b565b613e639190615c7b565b6097549091506000908190613e8e90600160a01b8104600290810b91600160b81b9004900b8c61286b565b935093505050613e9e8282612bf8565b613ea88282612cd1565b6040519193509150600080516020615e5d83398151915290613ecd9084908490615ab0565b60405180910390a1613edf8483615b59565b9150613eeb8382615b59565b609e549091506001600160a01b038681169116141561409657609754869061271090613f2290600160d01b900461ffff1685615bda565b613f2c9190615b97565b1015613f4a5760405162461bcd60e51b81526004016107d590615966565b609b54609954609e546040516370a0823160e01b8152899392916001600160a01b0316906370a0823190613f829030906004016157a8565b60206040518083038186803b158015613f9a57600080fd5b505afa158015613fae573d6000803e3d6000fd5b505050506040513d601f19601f82011682018060405250810190613fd2919061572f565b613fdc9190615c7b565b613fe69190615c7b565b613ff09190615c7b565b609c54609a54609f546040516370a0823160e01b8152939750919290916001600160a01b0316906370a082319061402b9030906004016157a8565b60206040518083038186803b15801561404357600080fd5b505afa158015614057573d6000803e3d6000fd5b505050506040513d601f19601f8201168201806040525081019061407b919061572f565b6140859190615c7b565b61408f9190615c7b565b9250614221565b609f546001600160a01b0386811691161415613077576097548690612710906140ca90600160d01b900461ffff1684615bda565b6140d49190615b97565b10156140f25760405162461bcd60e51b81526004016107d590615966565b609b54609954609e546040516370a0823160e01b81526001600160a01b03909116906370a08231906141289030906004016157a8565b60206040518083038186803b15801561414057600080fd5b505afa158015614154573d6000803e3d6000fd5b505050506040513d601f19601f82011682018060405250810190614178919061572f565b6141829190615c7b565b61418c9190615c7b565b609c54609a54609f546040516370a0823160e01b815293975089936001600160a01b03909116906370a08231906141c79030906004016157a8565b60206040518083038186803b1580156141df57600080fd5b505afa1580156141f3573d6000803e3d6000fd5b505050506040513d601f19601f82011682018060405250810190614217919061572f565b61407b9190615c7b565b609754612f1f90600160a01b8104600290810b91600160b81b9004900b86868d8d8d612d6c565b600054610100900460ff1661426f5760405162461bcd60e51b81526004016107d590615a0e565b6139658282614d74565b600054610100900460ff166142a05760405162461bcd60e51b81526004016107d590615a0e565b610c8b614dc2565b6001600160a01b0382166143085760405162461bcd60e51b815260206004820152602160248201527f45524332303a206275726e2066726f6d20746865207a65726f206164647265736044820152607360f81b60648201526084016107d5565b6001600160a01b0382166000908152603360205260409020548181101561437c5760405162461bcd60e51b815260206004820152602260248201527f45524332303a206275726e20616d6f756e7420657863656564732062616c616e604482015261636560f01b60648201526084016107d5565b6001600160a01b03831660009081526033602052604081208383039055603580548492906143ab908490615c7b565b90915550506040518281526000906001600160a01b03851690600080516020615e3d8339815191529060200160405180910390a3505050565b60008080600019858709858702925082811083820303915050806000141561441e576000841161441357600080fd5b50829004905061079f565b80841161442a57600080fd5b60008486880960026001871981018816978890046003810283188082028403028082028403028082028403028082028403028082028403029081029092039091026000889003889004909101858311909403939093029303949094049190911702949350505050565b600080600080871561466057609d60009054906101000a90046001600160a01b03166001600160a01b031663f30583996040518163ffffffff1660e01b815260040160206040518083038186803b1580156144ed57600080fd5b505afa158015614501573d6000803e3d6000fd5b505050506040513d601f19601f82011682018060405250810190614525919061572f565b609d5460975460405163f30dba9360e01b81529293506001600160a01b039091169163f30dba939161456591600160a01b90910460020b9060040161587f565b6101006040518083038186803b15801561457e57600080fd5b505afa158015614592573d6000803e3d6000fd5b505050506040513d601f19601f820116820180604052508101906145b691906154af565b5050609d5460975460405163f30dba9360e01b8152959a506001600160a01b03909116965063f30dba9395506145ff94600160b81b90910460020b9350600401915061587f9050565b6101006040518083038186803b15801561461857600080fd5b505afa15801561462c573d6000803e3d6000fd5b505050506040513d601f19601f8201168201806040525081019061465091906154af565b5093975061481b95505050505050565b609d60009054906101000a90046001600160a01b03166001600160a01b031663461413196040518163ffffffff1660e01b815260040160206040518083038186803b1580156146ae57600080fd5b505afa1580156146c2573d6000803e3d6000fd5b505050506040513d601f19601f820116820180604052508101906146e6919061572f565b609d5460975460405163f30dba9360e01b81529293506001600160a01b039091169163f30dba939161472691600160a01b90910460020b9060040161587f565b6101006040518083038186803b15801561473f57600080fd5b505afa158015614753573d6000803e3d6000fd5b505050506040513d601f19601f8201168201806040525081019061477791906154af565b5050609d5460975460405163f30dba9360e01b8152949a506001600160a01b03909116965063f30dba9395506147bf9450600160b81b900460020b92600401915061587f9050565b6101006040518083038186803b1580156147d857600080fd5b505afa1580156147ec573d6000803e3d6000fd5b505050506040513d601f19601f8201168201806040525081019061481091906154af565b509297505050505050505b6000609760149054906101000a900460020b60020b8760020b12614840575082614845565b508281035b6000609760179054906101000a900460020b60020b8860020b121561486b575082614870565b508282035b8183038190036148906001600160801b0389168b8303600160801b6143e4565b9b9a5050505050505050505050565b6000600160ff1b82106137025760405162461bcd60e51b815260206004820152602860248201527f53616665436173743a2076616c756520646f65736e27742066697420696e2061604482015267371034b73a191a9b60c11b60648201526084016107d5565b609d54604051630251596160e31b81523060048201528215156024820152604481018590526001600160a01b03848116606483015260a06084830152600060a4830181905292839283928392169063128acb089060c4016040805180830381600087803b15801561497557600080fd5b505af1158015614989573d6000803e3d6000fd5b505050506040513d601f19601f820116820180604052508101906149ad919061537d565b91509150816149bb8a61489f565b6149c59190615bf9565b9350806149d18961489f565b6149db9190615bf9565b92506000609d60009054906101000a90046001600160a01b03166001600160a01b0316633850c7bd6040518163ffffffff1660e01b815260040160e06040518083038186803b158015614a2d57600080fd5b505afa158015614a41573d6000803e3d6000fd5b505050506040513d601f19601f82011682018060405250810190614a6591906155ed565b50505050505090506000614a9282614a7f8f60020b61328b565b614a8b8f60020b61328b565b89896137d9565b90506001600160801b03811615614b3e57609d60009054906101000a90046001600160a01b03166001600160a01b0316633c8a7d8d308f8f856040518563ffffffff1660e01b8152600401614aea94939291906157bc565b6040805180830381600087803b158015614b0357600080fd5b505af1158015614b17573d6000803e3d6000fd5b505050506040513d601f19601f82011682018060405250810190614b3b919061537d565b50505b5050505097509795505050505050565b6000614ba3826040518060400160405280602081526020017f5361666545524332303a206c6f772d6c6576656c2063616c6c206661696c6564815250856001600160a01b0316614df09092919063ffffffff16565b8051909150156131195780806020019051810190614bc191906152fa565b6131195760405162461bcd60e51b815260206004820152602a60248201527f5361666545524332303a204552433230206f7065726174696f6e20646964206e6044820152691bdd081cdd58d8d9595960b21b60648201526084016107d5565b6000826001600160a01b0316846001600160a01b03161115614c40579192915b6001600160a01b038416614c80600160601b600160e01b03606085901b16614c688787615c5b565b6001600160a01b0316866001600160a01b03166143e4565b6136959190615b97565b6000826001600160a01b0316846001600160a01b03161115614caa579192915b6136956001600160801b038316614cc18686615c5b565b6001600160a01b0316600160601b6143e4565b6000826001600160a01b0316846001600160a01b03161115614cf4579192915b6000614d17856001600160a01b0316856001600160a01b0316600160601b6143e4565b9050613282614d398483614d2b8989615c5b565b6001600160a01b03166143e4565b614dff565b6000826001600160a01b0316846001600160a01b03161115614d5e579192915b613695614d3983600160601b614d2b8888615c5b565b600054610100900460ff16614d9b5760405162461bcd60e51b81526004016107d590615a0e565b8151614dae906036906020850190614f7b565b508051613119906037906020840190614f7b565b600054610100900460ff16614de95760405162461bcd60e51b81526004016107d590615a0e565b6001606555565b60606136958484600085614e1a565b806001600160801b0381168114614e1557600080fd5b919050565b606082471015614e7b5760405162461bcd60e51b815260206004820152602660248201527f416464726573733a20696e73756666696369656e742062616c616e636520666f6044820152651c8818d85b1b60d21b60648201526084016107d5565b843b614ec95760405162461bcd60e51b815260206004820152601d60248201527f416464726573733a2063616c6c20746f206e6f6e2d636f6e747261637400000060448201526064016107d5565b600080866001600160a01b03168587604051614ee5919061578c565b60006040518083038185875af1925050503d8060008114614f22576040519150601f19603f3d011682016040523d82523d6000602084013e614f27565b606091505b5091509150614f37828286614f42565b979650505050505050565b60608315614f5157508161079f565b825115614f615782518084602001fd5b8160405162461bcd60e51b81526004016107d591906158bb565b828054614f8790615cbe565b90600052602060002090601f016020900481019282614fa95760008555614fef565b82601f10614fc257805160ff1916838001178555614fef565b82800160010185558215614fef579182015b82811115614fef578251825591602001919060010190614fd4565b506137029291505b808211156137025760008155600101614ff7565b600082601f83011261501b578081fd5b8151602061503061502b83615aee565b615abe565b80838252828201915082860187848660051b890101111561504f578586fd5b855b8581101561507657815161506481615da5565b84529284019290840190600101615051565b5090979650505050505050565b60008083601f840112615094578182fd5b5081356001600160401b038111156150aa578182fd5b6020830191508360208285010111156150c257600080fd5b9250929050565b8051600681900b8114614e1557600080fd5b600082601f8301126150eb578081fd5b81356001600160401b0381111561510457615104615d8f565b615117601f8201601f1916602001615abe565b81815284602083860101111561512b578283fd5b816020850160208301379081016020019190915292915050565b80516001600160801b0381168114614e1557600080fd5b60006020828403121561516d578081fd5b813561079f81615da5565b600060208284031215615189578081fd5b815161079f81615da5565b600080604083850312156151a6578081fd5b82356151b181615da5565b915060208301356151c181615da5565b809150509250929050565b6000806000606084860312156151e0578081fd5b83356151eb81615da5565b925060208401356151fb81615da5565b929592945050506040919091013590565b6000806040838503121561521e578182fd5b823561522981615da5565b946020939093013593505050565b60008060408385031215615249578182fd5b82516001600160401b038082111561525f578384fd5b818501915085601f830112615272578384fd5b8151602061528261502b83615aee565b8083825282820191508286018a848660051b89010111156152a1578889fd5b8896505b848710156152ca576152b6816150c9565b8352600196909601959183019183016152a5565b50918801519196509093505050808211156152e3578283fd5b506152f08582860161500b565b9150509250929050565b60006020828403121561530b578081fd5b815161079f81615dbd565b600080600080600060a0868803121561532d578283fd5b853561533881615dcb565b9450602086013561534881615dcb565b9350604086013561535881615da5565b925060608601359150608086013561536f81615dbd565b809150509295509295909350565b6000806040838503121561538f578182fd5b505080516020909101519092909150565b600080600080606085870312156153b5578182fd5b843593506020850135925060408501356001600160401b038111156153d8578283fd5b6153e487828801615083565b95989497509550505050565b600080600080600080600060e0888a03121561540a578485fd5b87356001600160401b0380821115615420578687fd5b61542c8b838c016150db565b985060208a0135915080821115615441578687fd5b5061544e8a828b016150db565b965050604088013561545f81615da5565b9450606088013561546f81615dda565b9350608088013561547f81615dcb565b925060a088013561548f81615dcb565b915060c088013561549f81615da5565b8091505092959891949750929550565b600080600080600080600080610100898b0312156154cb578182fd5b6154d489615145565b9750602089015180600f0b81146154e9578283fd5b60408a015160608b01519198509650945061550660808a016150c9565b935060a089015161551681615da5565b60c08a015190935061552781615dea565b60e08a015190925061553881615dbd565b809150509295985092959890939650565b6000806040838503121561555b578182fd5b61556483615145565b915061557260208401615145565b90509250929050565b600080600080600060a08688031215615592578283fd5b61559b86615145565b945060208601519350604086015192506155b760608701615145565b91506155c560808701615145565b90509295509295909350565b6000602082840312156155e2578081fd5b813561079f81615dda565b600080600080600080600060e0888a031215615607578081fd5b875161561281615da5565b602089015190975061562381615dcb565b604089015190965061563481615dda565b606089015190955061564581615dda565b608089015190945061565681615dda565b60a089015190935060ff8116811461566c578182fd5b60c089015190925061549f81615dbd565b600080600080600060a08688031215615694578283fd5b853561569f81615da5565b94506020860135935060408601356156b681615dbd565b925060608601359150608086013561536f81615da5565b600080600080600060a086880312156156e4578283fd5b85356156ef81615dda565b945060208601356156ff81615dda565b9350604086013561570f81615dda565b9250606086013561571f81615dea565b9150608086013561536f81615da5565b600060208284031215615740578081fd5b5051919050565b60008060408385031215615759578182fd5b8235915060208301356151c181615da5565b6000806040838503121561577d578182fd5b50508035926020909101359150565b6000825161579e818460208701615c92565b9190910192915050565b6001600160a01b0391909116815260200190565b6001600160a01b03949094168452600292830b6020850152910b60408301526001600160801b0316606082015260a06080820181905260009082015260c00190565b6001600160a01b039590951685526020850193909352604084019190915260608301526001600160801b0316608082015260a00190565b6020808252825182820181905260009190848201906040850190845b8181101561587357835163ffffffff1683529284019291840191600101615851565b50909695505050505050565b60029190910b815260200190565b600294850b81529290930b60208301526001600160801b039081166040830152909116606082015260800190565b60208152600082518060208401526158da816040850160208701615c92565b601f01601f19169190910160400192915050565b60208082526017908201527647656c61746f666965643a204f6e6c792067656c61746f60481b604082015260600190565b6020808252600490820152636d42505360e01b604082015260600190565b6020808252600f908201526e31b0b6363130b1b59031b0b63632b960891b604082015260600190565b602080825260089082015267686967682066656560c01b604082015260600190565b6020808252600d908201526c6869676820736c69707061676560981b604082015260600190565b60208082526003908201526242505360e81b604082015260600190565b60208082526022908201527f4f776e61626c653a2063616c6c6572206973206e6f7420746865206d616e616760408201526132b960f11b606082015260800190565b6020808252602b908201527f496e697469616c697a61626c653a20636f6e7472616374206973206e6f74206960408201526a6e697469616c697a696e6760a81b606082015260800190565b60208082526006908201526506d696e7420360d41b604082015260600190565b6020808252601f908201527f5265656e7472616e637947756172643a207265656e7472616e742063616c6c00604082015260600190565b918252602082015260400190565b604051601f8201601f191681016001600160401b0381118282101715615ae657615ae6615d8f565b604052919050565b60006001600160401b03821115615b0757615b07615d8f565b5060051b60200190565b600061ffff808316818516808303821115615b2e57615b2e615d63565b01949350505050565b60006001600160a01b03828116848216808303821115615b2e57615b2e615d63565b60008219821115615b6c57615b6c615d63565b500190565b60006001600160a01b0383811680615b8b57615b8b615d79565b92169190910492915050565b600082615ba657615ba6615d79565b500490565b60006001600160a01b0382811684821681151582840482111615615bd157615bd1615d63565b02949350505050565b6000816000190483118215151615615bf457615bf4615d63565b500290565b60008083128015600160ff1b850184121615615c1757615c17615d63565b6001600160ff1b0384018313811615615c3257615c32615d63565b50500390565b600061ffff83811690831681811015615c5357615c53615d63565b039392505050565b60006001600160a01b0383811690831681811015615c5357615c53615d63565b600082821015615c8d57615c8d615d63565b500390565b60005b83811015615cad578181015183820152602001615c95565b83811115610de25750506000910152565b600181811c90821680615cd257607f821691505b60208210811415615cf357634e487b7160e01b600052602260045260246000fd5b50919050565b6000600019821415615d0d57615d0d615d63565b5060010190565b600082615d2357615d23615d79565b500690565b60008160020b627fffff19811415615d4257615d42615d63565b9003919050565b6000600160ff1b821415615d5f57615d5f615d63565b0390565b634e487b7160e01b600052601160045260246000fd5b634e487b7160e01b600052601260045260246000fd5b634e487b7160e01b600052604160045260246000fd5b6001600160a01b0381168114615dba57600080fd5b50565b8015158114615dba57600080fd5b8060020b8114615dba57600080fd5b61ffff81168114615dba57600080fd5b63ffffffff81168114615dba57600080fdfec749f9ae947d4734cf1569606a8a347391ae94a063478aa853aeff48ac5f99e88be0079c531659141344cd1fd0a4f28419497f9722a3daafe3b4186f6b6457e0ddf252ad1be2c89b69c2b068fc378daa952ba7f163c4a11628f55a4df523b3efc28ad1de9c0c32e5394ba60323e44d8d9536312236a47231772e448a3e49de42a2646970667358221220da98b5ce1058b31e756db78a7dd1ca0a6a48332f8c190070d7a3757672c461df64736f6c63430008040033",
  "devdoc": {
    "kind": "dev",
    "methods": {
      "allowance(address,address)": {
        "details": "See {IERC20-allowance}."
      },
      "approve(address,uint256)": {
        "details": "See {IERC20-approve}. NOTE: If `amount` is the maximum `uint256`, the allowance is not updated on `transferFrom`. This is semantically equivalent to an infinite approval. Requirements: - `spender` cannot be the zero address."
      },
      "balanceOf(address)": {
        "details": "See {IERC20-balanceOf}."
      },
      "burn(uint256,address)": {
        "params": {
          "burnAmount": "The number of G-UNI tokens to burn",
          "receiver": "The account to receive the underlying amounts of token0 and token1"
        },
        "returns": {
          "amount0": "amount of token0 transferred to receiver for burning `burnAmount`",
          "amount1": "amount of token1 transferred to receiver for burning `burnAmount`",
          "liquidityBurned": "amount of liquidity removed from the underlying Uniswap V3 position"
        }
      },
      "decimals()": {
        "details": "Returns the number of decimals used to get its user representation. For example, if `decimals` equals `2`, a balance of `505` tokens should be displayed to a user as `5.05` (`505 / 10 ** 2`). Tokens usually opt for a value of 18, imitating the relationship between Ether and Wei. This is the value {ERC20} uses, unless this function is overridden; NOTE: This information is only used for _display_ purposes: it in no way affects any of the arithmetic of the contract, including {IERC20-balanceOf} and {IERC20-transfer}."
      },
      "decreaseAllowance(address,uint256)": {
        "details": "Atomically decreases the allowance granted to `spender` by the caller. This is an alternative to {approve} that can be used as a mitigation for problems described in {IERC20-approve}. Emits an {Approval} event indicating the updated allowance. Requirements: - `spender` cannot be the zero address. - `spender` must have allowance for the caller of at least `subtractedValue`."
      },
      "executiveRebalance(int24,int24,uint160,uint256,bool)": {
        "details": "When changing the range the inventory of token0 and token1 may be rebalanced with a swap to deposit as much liquidity as possible into the new position. Swap parameters can be computed by simulating the whole operation: remove all liquidity, deposit as much as possible into new position, then observe how much of token0 or token1 is leftover. Swap a proportion of this leftover to deposit more liquidity into the position, since any leftover will be unused and sit idle until the next rebalance.",
        "params": {
          "newLowerTick": "The new lower bound of the position's range",
          "newUpperTick": "The new upper bound of the position's range",
          "swapAmountBPS": "amount of token to swap as proportion of total. Pass 0 to ignore swap.",
          "swapThresholdPrice": "slippage parameter on the swap as a max or min sqrtPriceX96",
          "zeroForOne": "Which token to input into the swap (true = token0, false = token1)"
        }
      },
      "getMintAmounts(uint256,uint256)": {
        "params": {
          "amount0Max": "The maximum amount of token1 to forward on mint"
        },
        "returns": {
          "amount0": "actual amount of token0 to forward when minting `mintAmount`",
          "amount1": "actual amount of token1 to forward when minting `mintAmount`",
          "mintAmount": "maximum number of G-UNI tokens to mint"
        }
      },
      "getUnderlyingBalances()": {
        "returns": {
          "amount0Current": "current total underlying balance of token0",
          "amount1Current": "current total underlying balance of token1"
        }
      },
      "increaseAllowance(address,uint256)": {
        "details": "Atomically increases the allowance granted to `spender` by the caller. This is an alternative to {approve} that can be used as a mitigation for problems described in {IERC20-approve}. Emits an {Approval} event indicating the updated allowance. Requirements: - `spender` cannot be the zero address."
      },
      "initialize(string,string,address,uint16,int24,int24,address)": {
        "params": {
          "_lowerTick": "initial upperTick (only changeable with executiveRebalance)",
          "_managerFeeBPS": "proportion of fees earned that go to manager treasury note that the 4 above params are NOT UPDATEABLE AFTER INILIALIZATION",
          "_manager_": "address of manager (ownership can be transferred)",
          "_name": "name of G-UNI token",
          "_pool": "address of Uniswap V3 pool",
          "_symbol": "symbol of G-UNI token"
        }
      },
      "initializeManagerFee(uint16)": {
        "params": {
          "_managerFeeBPS": "proportion of fees earned that are credited to manager in Basis Points"
        }
      },
      "manager()": {
        "details": "Returns the address of the current manager."
      },
      "mint(uint256,address)": {
        "details": "to compute the amouint of tokens necessary to mint `mintAmount` see getMintAmounts",
        "params": {
          "mintAmount": "The number of G-UNI tokens to mint",
          "receiver": "The account to receive the minted tokens"
        },
        "returns": {
          "amount0": "amount of token0 transferred from msg.sender to mint `mintAmount`",
          "amount1": "amount of token1 transferred from msg.sender to mint `mintAmount`",
          "liquidityMinted": "amount of liquidity added to the underlying Uniswap V3 position"
        }
      },
      "name()": {
        "details": "Returns the name of the token."
      },
      "renounceOwnership()": {
        "details": "Leaves the contract without manager. It will not be possible to call `onlyManager` functions anymore. Can only be called by the current manager. NOTE: Renouncing ownership will leave the contract without an manager, thereby removing any functionality that is only available to the manager."
      },
      "symbol()": {
        "details": "Returns the symbol of the token, usually a shorter version of the name."
      },
      "totalSupply()": {
        "details": "See {IERC20-totalSupply}."
      },
      "transfer(address,uint256)": {
        "details": "See {IERC20-transfer}. Requirements: - `to` cannot be the zero address. - the caller must have a balance of at least `amount`."
      },
      "transferFrom(address,address,uint256)": {
        "details": "See {IERC20-transferFrom}. Emits an {Approval} event indicating the updated allowance. This is not required by the EIP. See the note at the beginning of {ERC20}. NOTE: Does not update the allowance if the current allowance is the maximum `uint256`. Requirements: - `from` and `to` cannot be the zero address. - `from` must have a balance of at least `amount`. - the caller must have allowance for ``from``'s tokens of at least `amount`."
      },
      "transferOwnership(address)": {
        "details": "Transfers ownership of the contract to a new account (`newOwner`). Can only be called by the current manager."
      },
      "updateGelatoParams(uint16,uint16,uint16,uint32,address)": {
        "params": {
          "newRebalanceBPS": "controls frequency of gelato rebalances: gas fee to execute rebalance can be gelatoRebalanceBPS proportion of fees earned since last rebalance",
          "newSlippageBPS": "maximum slippage on swaps during gelato rebalance",
          "newSlippageInterval": "length of time for TWAP used in computing slippage on swaps",
          "newTreasury": "address where managerFee withdrawals are sent",
          "newWithdrawBPS": "controls frequency of gelato withdrawals: gas fee to execute withdrawal can be gelatoWithdrawBPS proportion of fees accrued since last withdraw"
        }
      }
    },
    "version": 1
  },
  "userdoc": {
    "kind": "user",
    "methods": {
      "burn(uint256,address)": {
        "notice": "burn G-UNI tokens (fractional shares of a Uniswap V3 position) and receive tokens"
      },
      "executiveRebalance(int24,int24,uint160,uint256,bool)": {
        "notice": "Change the range of underlying UniswapV3 position, only manager can call"
      },
      "getMintAmounts(uint256,uint256)": {
        "notice": "compute maximum G-UNI tokens that can be minted from `amount0Max` and `amount1Max`"
      },
      "getUnderlyingBalances()": {
        "notice": "compute total underlying holdings of the G-UNI token supply includes current liquidity invested in uniswap position, current fees earned and any uninvested leftover (but does not include manager or gelato fees accrued)"
      },
      "initialize(string,string,address,uint16,int24,int24,address)": {
        "notice": "initialize storage variables on a new G-UNI pool, only called once"
      },
      "initializeManagerFee(uint16)": {
        "notice": "initializeManagerFee sets a managerFee, only manager can call. If a manager fee was not set in the initialize function it can be set here but ONLY ONCE- after it is set to a non-zero value, managerFee can never be set again."
      },
      "mint(uint256,address)": {
        "notice": "mint fungible G-UNI tokens, fractional shares of a Uniswap V3 position"
      },
      "rebalance(uint160,uint256,bool,uint256,address)": {
        "notice": "Reinvest fees earned into underlying position, only gelato executors can call Position bounds CANNOT be altered by gelato, only manager may via executiveRebalance. Frequency of rebalance configured with gelatoRebalanceBPS, alterable by manager."
      },
      "uniswapV3MintCallback(uint256,uint256,bytes)": {
        "notice": "Uniswap V3 callback fn, called back on pool.mint"
      },
      "uniswapV3SwapCallback(int256,int256,bytes)": {
        "notice": "Uniswap v3 callback fn, called back on pool.swap"
      },
      "updateGelatoParams(uint16,uint16,uint16,uint32,address)": {
        "notice": "change configurable parameters, only manager can call"
      },
      "withdrawGelatoBalance(uint256,address)": {
        "notice": "withdraw gelato fees accrued, only gelato executors can call. Frequency of withdrawals configured with gelatoWithdrawBPS, alterable by manager."
      },
      "withdrawManagerBalance(uint256,address)": {
        "notice": "withdraw manager fees accrued, only gelato executors can call. Target account to receive fees is managerTreasury, alterable by manager. Frequency of withdrawals configured with gelatoWithdrawBPS, alterable by manager."
      }
    },
    "version": 1
  },
  "storageLayout": {
    "storage": [
      {
        "astId": 6,
        "contract": "contracts/GUniPool.sol:GUniPool",
        "label": "_initialized",
        "offset": 0,
        "slot": "0",
        "type": "t_bool"
      },
      {
        "astId": 9,
        "contract": "contracts/GUniPool.sol:GUniPool",
        "label": "_initializing",
        "offset": 1,
        "slot": "0",
        "type": "t_bool"
      },
      {
        "astId": 1132,
        "contract": "contracts/GUniPool.sol:GUniPool",
        "label": "__gap",
        "offset": 0,
        "slot": "1",
        "type": "t_array(t_uint256)50_storage"
      },
      {
        "astId": 151,
        "contract": "contracts/GUniPool.sol:GUniPool",
        "label": "_balances",
        "offset": 0,
        "slot": "51",
        "type": "t_mapping(t_address,t_uint256)"
      },
      {
        "astId": 157,
        "contract": "contracts/GUniPool.sol:GUniPool",
        "label": "_allowances",
        "offset": 0,
        "slot": "52",
        "type": "t_mapping(t_address,t_mapping(t_address,t_uint256))"
      },
      {
        "astId": 159,
        "contract": "contracts/GUniPool.sol:GUniPool",
        "label": "_totalSupply",
        "offset": 0,
        "slot": "53",
        "type": "t_uint256"
      },
      {
        "astId": 161,
        "contract": "contracts/GUniPool.sol:GUniPool",
        "label": "_name",
        "offset": 0,
        "slot": "54",
        "type": "t_string_storage"
      },
      {
        "astId": 163,
        "contract": "contracts/GUniPool.sol:GUniPool",
        "label": "_symbol",
        "offset": 0,
        "slot": "55",
        "type": "t_string_storage"
      },
      {
        "astId": 744,
        "contract": "contracts/GUniPool.sol:GUniPool",
        "label": "__gap",
        "offset": 0,
        "slot": "56",
        "type": "t_array(t_uint256)45_storage"
      },
      {
        "astId": 87,
        "contract": "contracts/GUniPool.sol:GUniPool",
        "label": "_status",
        "offset": 0,
        "slot": "101",
        "type": "t_uint256"
      },
      {
        "astId": 131,
        "contract": "contracts/GUniPool.sol:GUniPool",
        "label": "__gap",
        "offset": 0,
        "slot": "102",
        "type": "t_array(t_uint256)49_storage"
      },
      {
        "astId": 6789,
        "contract": "contracts/GUniPool.sol:GUniPool",
        "label": "_manager",
        "offset": 0,
        "slot": "151",
        "type": "t_address"
      },
      {
        "astId": 6379,
        "contract": "contracts/GUniPool.sol:GUniPool",
        "label": "lowerTick",
        "offset": 20,
        "slot": "151",
        "type": "t_int24"
      },
      {
        "astId": 6381,
        "contract": "contracts/GUniPool.sol:GUniPool",
        "label": "upperTick",
        "offset": 23,
        "slot": "151",
        "type": "t_int24"
      },
      {
        "astId": 6383,
        "contract": "contracts/GUniPool.sol:GUniPool",
        "label": "gelatoRebalanceBPS",
        "offset": 26,
        "slot": "151",
        "type": "t_uint16"
      },
      {
        "astId": 6385,
        "contract": "contracts/GUniPool.sol:GUniPool",
        "label": "gelatoWithdrawBPS",
        "offset": 28,
        "slot": "151",
        "type": "t_uint16"
      },
      {
        "astId": 6387,
        "contract": "contracts/GUniPool.sol:GUniPool",
        "label": "gelatoSlippageBPS",
        "offset": 30,
        "slot": "151",
        "type": "t_uint16"
      },
      {
        "astId": 6389,
        "contract": "contracts/GUniPool.sol:GUniPool",
        "label": "gelatoSlippageInterval",
        "offset": 0,
        "slot": "152",
        "type": "t_uint32"
      },
      {
        "astId": 6391,
        "contract": "contracts/GUniPool.sol:GUniPool",
        "label": "managerFeeBPS",
        "offset": 4,
        "slot": "152",
        "type": "t_uint16"
      },
      {
        "astId": 6393,
        "contract": "contracts/GUniPool.sol:GUniPool",
        "label": "managerTreasury",
        "offset": 6,
        "slot": "152",
        "type": "t_address"
      },
      {
        "astId": 6395,
        "contract": "contracts/GUniPool.sol:GUniPool",
        "label": "managerBalance0",
        "offset": 0,
        "slot": "153",
        "type": "t_uint256"
      },
      {
        "astId": 6397,
        "contract": "contracts/GUniPool.sol:GUniPool",
        "label": "managerBalance1",
        "offset": 0,
        "slot": "154",
        "type": "t_uint256"
      },
      {
        "astId": 6399,
        "contract": "contracts/GUniPool.sol:GUniPool",
        "label": "gelatoBalance0",
        "offset": 0,
        "slot": "155",
        "type": "t_uint256"
      },
      {
        "astId": 6401,
        "contract": "contracts/GUniPool.sol:GUniPool",
        "label": "gelatoBalance1",
        "offset": 0,
        "slot": "156",
        "type": "t_uint256"
      },
      {
        "astId": 6404,
        "contract": "contracts/GUniPool.sol:GUniPool",
        "label": "pool",
        "offset": 0,
        "slot": "157",
        "type": "t_contract(IUniswapV3Pool)2687"
      },
      {
        "astId": 6407,
        "contract": "contracts/GUniPool.sol:GUniPool",
        "label": "token0",
        "offset": 0,
        "slot": "158",
        "type": "t_contract(IERC20)1211"
      },
      {
        "astId": 6410,
        "contract": "contracts/GUniPool.sol:GUniPool",
        "label": "token1",
        "offset": 0,
        "slot": "159",
        "type": "t_contract(IERC20)1211"
      }
    ],
    "types": {
      "t_address": {
        "encoding": "inplace",
        "label": "address",
        "numberOfBytes": "20"
      },
      "t_array(t_uint256)45_storage": {
        "base": "t_uint256",
        "encoding": "inplace",
        "label": "uint256[45]",
        "numberOfBytes": "1440"
      },
      "t_array(t_uint256)49_storage": {
        "base": "t_uint256",
        "encoding": "inplace",
        "label": "uint256[49]",
        "numberOfBytes": "1568"
      },
      "t_array(t_uint256)50_storage": {
        "base": "t_uint256",
        "encoding": "inplace",
        "label": "uint256[50]",
        "numberOfBytes": "1600"
      },
      "t_bool": {
        "encoding": "inplace",
        "label": "bool",
        "numberOfBytes": "1"
      },
      "t_contract(IERC20)1211": {
        "encoding": "inplace",
        "label": "contract IERC20",
        "numberOfBytes": "20"
      },
      "t_contract(IUniswapV3Pool)2687": {
        "encoding": "inplace",
        "label": "contract IUniswapV3Pool",
        "numberOfBytes": "20"
      },
      "t_int24": {
        "encoding": "inplace",
        "label": "int24",
        "numberOfBytes": "3"
      },
      "t_mapping(t_address,t_mapping(t_address,t_uint256))": {
        "encoding": "mapping",
        "key": "t_address",
        "label": "mapping(address => mapping(address => uint256))",
        "numberOfBytes": "32",
        "value": "t_mapping(t_address,t_uint256)"
      },
      "t_mapping(t_address,t_uint256)": {
        "encoding": "mapping",
        "key": "t_address",
        "label": "mapping(address => uint256)",
        "numberOfBytes": "32",
        "value": "t_uint256"
      },
      "t_string_storage": {
        "encoding": "bytes",
        "label": "string",
        "numberOfBytes": "32"
      },
      "t_uint16": {
        "encoding": "inplace",
        "label": "uint16",
        "numberOfBytes": "2"
      },
      "t_uint256": {
        "encoding": "inplace",
        "label": "uint256",
        "numberOfBytes": "32"
      },
      "t_uint32": {
        "encoding": "inplace",
        "label": "uint32",
        "numberOfBytes": "4"
      }
    }
  }
}